:1000000052C0DCC16BC06AC069C068C067C066C04E
:1000100065C064C063C062C061C060C05FC00902E7
:100020002200010100800A09040000010300000011
:100030000921010100012234000705810308006441
:100040001201100100000008DEC0BEBA4223010206
:1000500000010C0368006500610072007400100369
:100060007500730062006C006F0076006500040389
:10007000090405010902A1010901A10005091901ED
:100080002903150025019503750181029501750568
:10009000810305010930093109381581257F75086B
:1000A00095038106C0C011241FBECFE5D2E0DEBF9C
:1000B000CDBF10E0A0E6B0E0E2ECF7E002C00590B2
:1000C0000D92AA3BB107D9F720E0AAEBB0E001C03E
:1000D0001D92A83FB207E1F7F5D265C391CFCF9348
:1000E000C62F2091BC0024FF1CC02091BD0038E821
:1000F00023272093BD00EEEBF0E09C01D9012F5F98
:100100003F4F9C9191939C2F921B980F1916B4F31B
:100110006C2F8EEB90E03BD1CC5FC093BC00CF91B5
:1001200008952AE52093BC00E6CFCF93DF9380911A
:10013000D500835087FD28C09091D3009D3211F5E2
:10014000883001F58091D900CCE0D0E0C81BD109FE
:10015000C652DF4F83EC8093C8008AE5809361002C
:100160001092F10088818076811509F46FC0CE016C
:1001700046D29F81911104C09E81981708F4892F5F
:10018000809360001092D5008091610084FF3EC092
:10019000809160008F3FD1F1C82F893008F0C8E00E
:1001A000982F9C1B909360009091C80028E892279C
:1001B0009093C8008115E9F08091BA009091BB003E
:1001C0002091F10026FFB5C0FC012C2F49EC50E036
:1001D0003491DA013C934F5F5F4F31962A95C1F716
:1001E00001962FEF2C0F820F911D9093BB008093EF
:1001F000BA006C2F89EC90E0CAD084E08C0FC83034
:1002000019F09FEF909360008093610084E196B3B2
:100210009570911106C08A95D1F71092D70010926F
:10022000D800C1E08111C0E09091F000C91759F0E9
:10023000811539F0F89405D2789461B780E090E0A8
:10024000A4D2C093F000DF91CF9108959A811092CB
:10025000D100E981EC30A0F4F0E0EB52FC4F0994BE
:1002600026ED30E081E005C01092D20021ED30E0B3
:1002700082E03093BB002093BA007BCF9093D700ED
:1002800021ED30E0F6CF2B81213059F480E490E06D
:100290009093BB008093BA0082E190E49093F100C8
:1002A00068CF223041F48EE190E09093BB008093C0
:1002B000BA0082E2F2CF2330F1F4911108C08EE649
:1002C00090E09093BB008093BA0084E0E6CF913039
:1002D00041F48EE590E09093BB008093BA0080E1FA
:1002E000DCCF9230D1F682E590E09093BB00809312
:1002F000BA008CE0D2CF213241F480E390E09093B9
:10030000BB008093BA0089E0C8CF223231F682E781
:1003100090E09093BB008093BA0084E3BECF9093AB
:10032000D600AECF9BE49093BD00AACF21ED30E084
:1003300099CFDC012C2F49EC50E0FA013D9130833C
:100340004F5F5F4F2A95C9F74BCF85B7826085BF56
:100350008BB780648BBFECEBF0E08BE481838AE5A4
:1003600080830895A82FB92F80E090E041E050EA03
:10037000609530E009C02D9182279795879510F000
:1003800084279527305EC8F36F5FA8F30895EADFEE
:100390008D939D930895A6E088279927AA9569F0E3
:1003A0000197E1F3B099FCCFB09BFECF81E0992794
:1003B000A6B3019611F0A570D9F70895CF93CFB7E2
:1003C000CF93DF93C395B09BE9F7B09B0BC0B09B75
:1003D00009C0B09B07C0B09B05C0B09B03C0B09BD9
:1003E00001C08BC06F93C091D900DD27C652DF4F8B
:1003F0002F9365E5B09B03C02F916F91E6CF0F93CC
:100400001F934F9320E040E15F9306B3057000FB1C
:1004100027F93F9350E03BE039C0157040642F77D7
:10042000012F5F5F1EC0406816B315702F775250C2
:100430001FC0406406B32F770570D1F15F5F00C025
:1004400023C0406216B32F77157091F15F5F00C033
:1004500025C005701027515012F45D5F0000115047
:1004600027952C3F16B3C8F6157001270150279524
:100470002C3FC8F64227499306B3057010274F73E7
:10048000115027952C3FA8F64695469516B3157042
:1004900079F00127015027952C3F98F66B5A60F3AD
:1004A000315006B3B0F600C010E41ABF002719C0DF
:1004B0003B503195C31BD04010E41ABF0881033C68
:1004C00009F10B34F9F02091D8001981110F1213A2
:1004D000EDCF4A81441F093651F10D3211F0013E32
:1004E00029F70093D4003F915F914F911F910F9195
:1004F0002F916F91CAB7C6FD65CFDF91CF91CFBF66
:10050000CF9118952091D400222369F31091D50042
:10051000112391F5343092F13093D5002093D3001C
:100520001091D9003BE0311B3093D90027C00091D6
:10053000D50001300CF50AE54F7049F430916100A7
:1005400034FD1DC000936100C8ECD0E01CC03091A8
:10055000BC0034FD14C00093BC00CDEBD0E013C050
:10056000052710E000C0000008BB1AC0052710E0F6
:10057000221F1DC010E021C04AE502C032ED432F0A
:10058000C4E1D0E032E017B31560C09A08B317BBDE
:1005900055E020E865E320FF052708BB2795179560
:1005A0001C3FF0F66695B8F7B1F720FF052708BBAA
:1005B000279517951C3FD0F62795179517FF052708
:1005C00000001C3F08BBB0F629913A9519F70A7F45
:1005D0001091D700110FC651D04008BB11F01093F5
:1005E000D80010E41ABF016017B31A7F402F4A7F6A
:1005F00054E05A95F1F708BB17BB48BB74CFFC0118
:10060000808180768032B9F48181813041F484EF39
:1006100090E09093BB008093BA0084E0089582300C
:1006200041F483EF90E09093BB008093BA0081E0A7
:1006300008958A3011F080E0089583818093F3005B
:10064000FACFDF92EF92FF920F931F93CF93DF9336
:1006500087E0E82EF12CC0E0D0E4DD2EDC0ED1BE28
:100660009ADE8C010C3E88E018070CF4CD2DD6954F
:1006700081E0E81AF10889F78FEF8C0F81BFEC2E2B
:10068000F12C8FEFE81AF80A81B7E816F1044CF460
:10069000C1BFDF91CF911F910F91FF90EF90DF903D
:1006A000089579DE8C5E984097FF03C091958195FF
:1006B00091098017910714F4C1B78C0181B78F5F3E
:1006C00081BFE2CF88E19EE00FB6F894A89581BD86
:1006D0000FBE91BD3ADE789487B38A6387BBC59A13
:1006E000C39AC498C198F12C06E510E0C8EDD9E58D
:1006F000A8951BDD8091BC0084FF21C08091F20091
:10070000863510F01092F2008091F200E82FF0E0B0
:100710008C3240F198012E1B3F0BF901EE0FFF1FA9
:10072000EE59FF4F90819093F50091819093F600E0
:100730008F5F8093F20064E084EF90E0D0DC21973B
:10074000B9F6F39430E1F316B9F0F0FE16C0C49A8E
:10075000F1FE15C0C39AF2FE14C0C59AF3FE13C091
:10076000C19AC4CFEE0FFF1FEE59FF4F90819093B7
:10077000F50091819195DACFF12CC498E9CFC39817
:10078000EACFC598EBCFC198B1CF262FE199FECF24
:100790001CBA9FBB8EBB2DBB0FB6F894E29AE19AB0
:1007A0000FBE01960895F894FFCF5ECD69CD68CD58
:1007B00067CD66CD63CD67CD63CD52CDB0CDB6CD1F
:0207C000B1CDB9
:1007C200FF5A00010003010402060307040705079C
:1007D2000707080709060A040B030B010CFF0BFDB0
:1007E2000BFB0AFA09F808F706F604F502F400F41E
:1007F200FEF4FCF4FAF4F8F5F7F5F6F5F5F6F5F68D
:10080200F4F6F5F6F5F7F6F7F7F7F8F8F9F8FBF975
:0A081200FCFAFDFAFEFCFFFD00FEFB
:00000001FF
